:100000000C9462000C948A000C948A000C948A0070
:100010000C948A000C948A000C948A000C948A0038
:100020000C948A000C948A000C948A000C948A0028
:100030000C948A000C948A000C948A000C948A0018
:100040000C94B9050C948A000C9429060C940306B0
:100050000C948A000C948A000C948A000C948A00F8
:100060000C948A000C948A000000000024002700F1
:100070002A0000000000250028002B0000000008D6
:10008000000201000003040700000000000000005F
:1000900000000000230026002900040404040404D6
:1000A0000404020202020202030303030303010227
:1000B00004081020408001020408102001020408F6
:1000C00010205B0611241FBECFEFD8E0DEBFCDBFEE
:1000D00011E0A0E0B1E0E4E1F7E102C005900D928B
:1000E000A037B107D9F722E0A0E7B1E001C01D9227
:1000F000A834B207E1F710E0C2E6D0E004C02197CF
:10010000FE010E947D0BC136D107C9F70E94C706C8
:100110000C94880B0C9400008F929F92AF92BF9228
:10012000CF92DF92EF92FF92CF93DF93A0912502BF
:10013000882311F03A2F01C030E08091260290E030
:10014000880F991F80579F4FC0902B02D0902C0290
:10015000E0902D02F0902E0240E050E0BA01FC0148
:10016000C591D49128812A23231314C04A015B012D
:100170002FEF821A920AA20AB20A4C155D056E058B
:100180007F0518F4B501A401EACF30E020E080E05B
:1001900090E003C0342F252FCB01632F722FDF9106
:1001A000CF91FF90EF90DF90CF90BF90AF909F9056
:1001B0008F90089590E0FC01E458FF4F2491FC01DA
:1001C000E255FF4F3491FC01E656FF4FE491EE23D8
:1001D00009F43CC0222339F1233091F038F4213066
:1001E000A9F0223001F584B58F7D12C0273091F03F
:1001F0002830A1F02430B9F4809180008F7D03C0B5
:10020000809180008F77809380000DC084B58F77B8
:1002100084BD09C08091B0008F7703C08091B00089
:100220008F7D8093B000F0E0EE0FFF1FEE58FF4F80
:10023000A591B4919FB7F894611104C08C91309549
:10024000382302C0EC913E2B3C939FBF0895CF937F
:10025000DF9390E0FC01E255FF4F2491FC01E6564C
:10026000FF4F8491882361F190E0880F991FFC0172
:10027000E859FF4FC591D491FC01EE58FF4FA5916D
:10028000B491611109C09FB7F894888120958223A9
:100290008883EC912E230BC0623061F49FB7F894F1
:1002A0008881322F309583238883EC912E2B2C93D9
:1002B0009FBF06C08FB7F894E8812E2B28838FBF8D
:1002C000DF91CF9108958E3008F08E508770806452
:1002D00080937C0080917A00806480937A00809182
:1002E0007A0086FDFCCF809178002091790090E023
:1002F000922B08953FB7F8948091790190917A01FB
:10030000A0917B01B0917C0126B5A89B05C02F3F31
:1003100019F00196A11DB11D3FBFBA2FA92F982F2B
:100320008827820F911DA11DB11DBC01CD0142E0A6
:10033000660F771F881F991F4A95D1F708958F92EE
:100340009F92AF92BF92CF92DF92EF92FF926B019A
:100350007C010E947A014B015C01C114D104E104CB
:10036000F104F1F00E947A01DC01CB0188199909AE
:10037000AA09BB09883E9340A105B10570F321E0AD
:10038000C21AD108E108F10888EE880E83E0981EB1
:10039000A11CB11CC114D104E104F10419F7DDCF93
:1003A000FF90EF90DF90CF90BF90AF909F908F9095
:1003B0000895CF92DF92EF92FF920F931F93CF9306
:1003C000DF93CDB7DEB7C054D1400FB6F894DEBF8F
:1003D0000FBECDBF2FB7F89480917D0190917E0123
:1003E000A0917F01B09180012FBF409127025091D1
:1003F00028026091290270912A028C019D01041B40
:10040000150B260B370BB901A801403D574061057C
:10041000710518F480912F02BCC08093270290933D
:100420002802A0932902B0932A021092220210926D
:1004300021021092200210921F0210921E0261E00F
:10044000809123020E94DA006AEF70E080E090E081
:100450000E949F0161E0809123020E94270160E0D9
:10046000809123020E94DA0064E170E080E090E075
:100470000E949F01F89461E0809123020E94DA00BB
:100480008BE990E00197F1F762E0809123020E94EE
:10049000270183E290E00197F1F780E00E948C0051
:1004A000672B682B692B21F410922F0278943EC0A1
:1004B00081E00E948C00672B682B692BA9F38E01C9
:1004C0000F5F1F4F6E012FEBC21A2EEFD20A780179
:1004D00080E00E948C00F7016083718382839383A4
:1004E00081E00E948C00F701648375838683978383
:1004F000F8E0EF0EF11CEC14FD0451F7789420E0C5
:1005000030E0F801C080D180E280F38044815581E1
:1005100066817781C114D104E104F10429F0411509
:1005200051056105710521F410922F0280E031C060
:10053000F90183E0F595E7958A95E1F7E25EFD4FD5
:100540008081880FC416D506E606F70608F4816098
:1005500080832F5F3F4F085F1F4F2832310589F698
:100560002091220230E040911E0280911F0290E013
:10057000840F911D40912002840F911D4091210212
:10058000840F911D99272817390771F681E0809310
:100590002F02C05CDE4F0FB6F894DEBF0FBECDBF9A
:1005A000DF91CF911F910F91FF90EF90DF90CF904F
:1005B0000895CF92DF92EF92FF920F931F93CF9304
:1005C000DF936C017A018B01C0E0D0E0CE15DF052E
:1005D00081F0D8016D918D01D601ED91FC910190D2
:1005E000F081E02DC6010995892B11F02196EECFFF
:1005F0007E01C701DF91CF911F910F91FF90EF9086
:10060000DF90CF900895FC01538D448D252F30E06D
:10061000842F90E0821B930B541710F0CF9608950F
:1006200001970895FC01918D828D981761F0828D5C
:10063000DF01A80FB11D5D968C91928D9F5F9F7316
:10064000928F90E008958FEF9FEF0895FC01918DB8
:10065000828D981731F0828DE80FF11D858D90E025
:1006600008958FEF9FEF0895FC01918D228D892FC2
:1006700090E0805C9F4F821B91098F7399270895AA
:1006800081E891E00E94340321E0892B09F420E005
:10069000822F0895FC01848DDF01A80FB11DA35A9C
:1006A000BF4F2C91848D90E001968F739927848F92
:1006B000A689B7892C93A089B1898C9183708064B5
:1006C0008C93938D848D981306C00288F389E02D56
:1006D00080818F7D80830895EF92FF920F931F9307
:1006E000CF93DF93EC0181E0888F9B8D8C8D9813E5
:1006F00005C0E889F989808185FD26C0F62E0B8D1D
:1007000010E00F5F1F4F0F731127E02E8C8DE81242
:100710000CC00FB607FCFACFE889F989808185FF04
:10072000F5CFCE010E944A03F1CF8B8DFE01E80F79
:10073000F11DE35AFF4FF0829FB7F8940B8FEA89BF
:10074000FB89808180620AC09FB7F894EE89FF8997
:100750006083E889F98980818370806480839FBF8A
:1007600081E090E0DF91CF911F910F91FF90EF908A
:100770000895CF93DF93EC01888D8823C9F0EA892F
:10078000FB89808185FD05C0A889B9898C9186FD8A
:100790000FC00FB607FCF5CF808185FFF2CFA88987
:1007A000B9898C9185FFEDCFCE010E944A03E7CF36
:1007B000DF91CF91089580E090E0892B29F00E948D
:1007C000400381110C9400000895CF93DF93EC0156
:1007D00060E08E810E94DA0061E08E810E94DA0082
:1007E00060E08E810E94DA008BE891E00197F1F7DA
:1007F000DF91CF910895CF92DF92EF92FF920F9306
:100800001F93CF93DF936C017C0187E0E80EF11C0E
:10081000C0E0D0E0062F10E0B8010C2E02C07595A4
:1008200067950A94E2F76170F70181917F010E9458
:10083000DA002196C430D10579F7C601DF91CF9156
:100840001F910F91FF90EF90DF90CF900C94E503F4
:10085000CF92DF92EF92FF920F931F93CF93DF938C
:10086000EC01F62E642F8C810E94DA008D818F3F7F
:1008700019F060E00E94DA008F850F2D10E084FFF0
:1008800025C06E0187E0C80ED11CE12CF12CB80107
:100890000E2C02C0759567950A94E2F76170F60117
:1008A00081916F010E94DA00FFEFEF1AFF0A88E0E2
:1008B000E816F10461F7CE01DF91CF911F910F91FE
:1008C000FF90EF90DF90CF900C94E503B80184E0A7
:1008D000759567958A95E1F7CE010E94FB036F2D10
:1008E000CE01DF91CF911F910F91FF90EF90DF909C
:1008F000CF900C94FB0340E0682F80E392E00C94CF
:100900002804CF93DF93823028F090913F029860C3
:1009100090933F02809343021092440280E48093BC
:10092000450280E18093460280E58093470261E0C2
:10093000809134020E942701809135028F3F19F087
:1009400061E00E94270161E0809136020E94270148
:10095000C0E3D2E09E012053324080913F0284FDEB
:1009600003C084E090E002C088E090E02196281760
:1009700039072CF461E08E810E942701EBCF8BE3D5
:100980009DE00197F1F760E0809134020E94DA0067
:1009900060E0809136020E94DA00809135028F3F3C
:1009A00019F060E00E94DA0080913F0284FD20C0CF
:1009B00063E080E392E00E94FB03CBE4D6E4CE0147
:1009C0000197F1F763E080E392E00E94FB03219737
:1009D000F1F763E080E392E00E94FB0383E592E09D
:1009E0000197F1F762E080E392E00E94FB0315C0FB
:1009F00080620E947B048BE496E40197F1F780917A
:100A00003F0280620E947B0483E592E00197F1F748
:100A100080913F0280620E947B0480913F0280624D
:100A20000E947B0484E0809340028CE00E947B045F
:100A300081E00E947B048BE39FE10197F1F782E064
:100A40008093410286E0DF91CF910C947B04643067
:100A500008F063E090914302691710F06FEF690F9F
:100A6000E62FF0E0E05DFD4F9489890F80680C94DB
:100A70007B0441E00E94280481E090E008950895FD
:100A800080E090E008950E94830B6115710579F074
:100A9000FB0101900020E9F73197AF01461B570B8E
:100AA000DC01ED91FC910280F381E02D099480E05E
:100AB00090E008958F929F92AF92BF920F931F93F1
:100AC000CF93DF93CDB7DEB7A1970FB6F894DEBF13
:100AD0000FBECDBF19A2423008F44AE08E010F5D6F
:100AE0001F4F842E912CA12CB12CA50194010E94A2
:100AF0003C0BE62FB901CA0101501109EA3014F488
:100B0000E05D01C0E95CD801EC93232B242B252B5D
:100B100061F7B80180E392E00E944505A1960FB607
:100B2000F894DEBF0FBECDBFDF91CF911F910F9123
:100B3000BF90AF909F908F900895CF92DF92EF92E9
:100B4000FF926B017C0141E06DE280E392E00E9444
:100B5000280466277727CB016C197D098E099F0928
:100B60004AE00E945A050196FF90EF90DF90CF90E7
:100B700008951F920F920FB60F9211242F933F9357
:100B80008F939F93AF93BF9380917D0190917E014E
:100B9000A0917F01B09180013091780123E0230F73
:100BA0002D3720F40196A11DB11D05C026E8230FA5
:100BB0000296A11DB11D2093780180937D01909331
:100BC0007E01A0937F01B093800180917901909183
:100BD0007A01A0917B01B0917C010196A11DB11D0C
:100BE0008093790190937A01A0937B01B0937C016B
:100BF000BF91AF919F918F913F912F910F900FBE19
:100C00000F901F9018951F920F920FB60F921124FC
:100C10002F933F934F935F936F937F938F939F9304
:100C2000AF93BF93EF93FF9381E891E00E944A0353
:100C3000FF91EF91BF91AF919F918F917F916F91B4
:100C40005F914F913F912F910F900FBE0F901F908A
:100C500018951F920F920FB60F9211242F938F9316
:100C60009F93EF93FF93E0919101F0919201808126
:100C7000E0919701F091980182FD12C090818091DE
:100C80009A018F5F8F7320919B01821751F0E09141
:100C90009A01F0E0EF57FE4F958F80939A0101C0C3
:100CA0008081FF91EF919F918F912F910F900FBEB7
:100CB0000F901F901895CF93E1E8F1E01382128214
:100CC00088EE93E0A0E0B0E084839583A683B783A9
:100CD00084E091E09183808385EC90E09587848720
:100CE00084EC90E09787868780EC90E0918B808BF6
:100CF00081EC90E0938B828B82EC90E0958B848BDF
:100D000086EC90E0978B868B118E128E138E148E4C
:100D1000E0E3F2E01382128286E191E09183808326
:100D200087E084838FEF858388E0868389E08783EB
:100D30008AE08087CBE0C1878CE0828713861486A7
:100D400015861686178681E00E948104AEE1B2E026
:100D500082E015968C9315971696CC931697E0EB38
:100D6000F0E0E4911796EC931797ECE9F0E0E4914A
:100D70001896EC93189740E85EE360E070E01D96EB
:100D80004D935D936D937C935097CF910895CF933E
:100D9000DF9300D000D01F92CDB7DEB7789484B532
:100DA000826084BD84B5816084BD85B5826085BD67
:100DB00085B5816085BD80916E00816080936E00F5
:100DC00010928100809181008260809381008091E7
:100DD0008100816080938100809180008160809398
:100DE00080008091B10084608093B1008091B00058
:100DF00081608093B00080917A00846080937A0053
:100E000080917A00826080937A0080917A0081607C
:100E100080937A0080917A00806880937A001092A3
:100E2000C100E0919101F091920182E08083E09114
:100E30008D01F0918E011082E0918F01F09190016F
:100E40008FEC808310929901E0919501F0919601C9
:100E500086E08083E0919301F0919401808180612C
:100E60008083E0919301F091940180818860808378
:100E7000E0919301F0919401808180688083E091FA
:100E80009301F091940180818F7D80836EE171E008
:100E900081E891E00E9445056BE271E081E891E014
:100EA0000E94450561E083E00E94270161E084E043
:100EB0000E94270162E0809123020E94270180E3C3
:100EC00098EFAFEFBFEF8093270290932802A09393
:100ED0002902B0932A0282E00E94810460E080E04F
:100EE0000E9427056EE271E080E392E00E944505D2
:100EF00060ED77E080E090E00E949F018EE00E942C
:100F000063017C018FE00E946301BC01990F880B93
:100F1000990B24E130E040E050E00E945E0B298311
:100F20003A834B835C83209370013093710140932B
:100F3000720150937301B701FF0C880B990B24E1E8
:100F400030E040E050E00E945E0B29013A0120931E
:100F500074013093750140937601509377010E949C
:100F6000D901882399F1809124028B3029F170F105
:100F70008551823058F560911E0270E080E090E06B
:100F80000E94130A20E030E040E853E40E94CA0ABD
:100F90006B017C0160911F0270E080E090E00E9494
:100FA000150AA70196010E9473092DEC3CEC4CEC4C
:100FB0005DE30E94CA0A07C060911E0270E080E0F3
:100FC00090E00E94130A4B015C0106C0812C912C19
:100FD00090ECA92E9FE7B92E0E94D901882309F42D
:100FE00056C0809124028B3029F0D8F1855182308F
:100FF00058F037C06091200270E080E090E00E94DD
:10100000130A6B017C0133C0809120028D83682F0D
:101010006F7770E080E090E00E94150A20E030E0F9
:1010200040E853E40E94CA0A6B017C0160912102EE
:1010300070E080E090E00E94150AA70196010E94EE
:1010400073092DEC3CEC4CEC5DE30E94CA0A6B0189
:101050007C019D8197FF0BC0F7FAF094F7F8F094AC
:1010600006C0C12CD12C80ECE82E8FE7F82EA5010C
:101070009401C501B4010E94370B811108C0A7017A
:101080009601C701B6010E94370B882379F06DE500
:1010900071E081E891E00E9445056BE271E081E832
:1010A00091E00E9445050E94DB0322CF69817A818D
:1010B0008B819C810E94150AA70196010E94C50A96
:1010C00087FD06C061E083E00E94DA0061E00FC0A6
:1010D000C301B2010E94150AA70196010E94DF090F
:1010E000181644F060E083E00E94DA0060E084E0DB
:1010F0000E94DA0082E00E94810460E080E00E94A9
:10110000270569E371E080E392E00E94450560E015
:101110008CE00E94270546015701E894B7F82FEFAD
:101120003FEF4FE75FE7C501B4010E94370B811124
:101130000DC02FEF3FEF4FE75FE7C501B4010E94FD
:10114000DF0918161CF467E471E00CC02FEF3FEFC5
:101150004FE75FE4C701B6010E94C50A18163CF4C8
:101160006BE471E080E392E00E9445056BC02FEFD5
:101170003FEF4FE75FECC701B6010E94DF0987FD33
:10118000EFCF20E030E0A901C701B6010E94DF09DE
:1011900087FF0AC041E06DE280E392E00E942804EC
:1011A000F7FAF094F7F8F0942AE037ED43EA5BE3BE
:1011B000C701B6010E9473094B015C010E94E4095A
:1011C0006B017C010E94130A9B01AC01C501B401B3
:1011D0000E9472094B015C014AE0C701B6010E94FE
:1011E0005A0541E06EE280E392E00E94280420E08C
:1011F00030E040E251E4C501B4010E94CA0A4B014B
:101200005C010E94E4096B01E12CF12C4AE0C7016A
:10121000B6010E945A05C701B6010E94130A9B013C
:10122000AC01C501B4010E94720920E030E040E247
:1012300051E40E94CA0A0E94E40980E090E04AE07A
:101240000E945A0560E08EE00E9427056FED80E362
:1012500092E00E94390560E08FE00E9427056FE46C
:1012600071E080E392E00E94450561E080E00E9429
:10127000270561E571E080E392E00E94450561E0A9
:1012800084E00E942705609174017091750180913E
:1012900076019091770197FF03C00E949D0503C0DE
:1012A0004AE00E945A0561E088E00E94270567E550
:1012B00071E080E392E00E944505609170017091B9
:1012C0007101809172019091730197FF03C00E9498
:1012D0009D0503C04AE00E945A0561E08EE00E942D
:1012E0002705E1CE5058BB27AA270E948A090C94F3
:1012F0008B0A0E947D0A38F00E94840A20F039F49B
:101300009F3F19F426F40C947A0A0EF4E095E7FB5B
:101310000C94740AE92F0E949C0A58F3BA176207CA
:1013200073078407950720F079F4A6F50C94BE0A9C
:101330000EF4E0950B2EBA2FA02D0B01B9019001F0
:101340000C01CA01A0011124FF27591B99F0593F34
:1013500050F4503E68F11A16F040A22F232F342F7C
:101360004427585FF3CF469537952795A795F040CA
:101370005395C9F77EF41F16BA0B620B730B840BDF
:10138000BAF09150A1F0FF0FBB1F661F771F881F97
:10139000C2F70EC0BA0F621F731F841F48F48795EF
:1013A00077956795B795F7959E3F08F0B0CF9395E1
:1013B000880F08F09927EE0F9795879508950E945A
:1013C000500A08F481E008950E94A40A88F09F570B
:1013D00098F0B92F9927B751B0F0E1F0660F771F59
:1013E000881F991F1AF0BA95C9F714C0B13091F04F
:1013F0000E94BE0AB1E008950C94BE0A672F782FB0
:101400008827B85F39F0B93FCCF386957795679513
:10141000B395D9F73EF490958095709561957F4F7F
:101420008F4F9F4F0895E89409C097FB3EF4909525
:101430008095709561957F4F8F4F9F4F9923A9F0AD
:10144000F92F96E9BB279395F6958795779567953C
:10145000B795F111F8CFFAF4BB0F11F460FF1BC080
:101460006F5F7F4F8F4F9F4F16C0882311F096E913
:1014700011C0772321F09EE8872F762F05C06623C1
:1014800071F096E8862F70E060E02AF09A95660F7A
:10149000771F881FDAF7880F9695879597F9089533
:1014A000990F0008550FAA0BE0E8FEEF1616170675
:1014B000E807F907C0F012161306E407F50798F0DD
:1014C000621B730B840B950B39F40A2661F0232BF6
:1014D000242B252B21F408950A2609F4A140A69572
:1014E0008FEF811D811D089597F99F6780E870E057
:1014F00060E008959FEF80EC089500240A9416168A
:10150000170618060906089500240A9412161306F1
:10151000140605060895092E0394000C11F488237F
:1015200052F0BB0F40F4BF2B11F460FF04C06F5F9B
:101530007F4F8F4F9F4F089557FD9058440F551F71
:1015400059F05F3F71F04795880F97FB991F61F045
:101550009F3F79F087950895121613061406551FBC
:10156000F2CF4695F1DF08C0161617061806991F28
:10157000F1CF86957105610508940895E894BB271D
:1015800066277727CB0197F908950E94500A08F43F
:101590008FEF08950E94DD0A0C948B0A0E947D0A49
:1015A00038F00E94840A20F0952311F00C94740AFC
:1015B0000C947A0A11240C94BF0A0E949C0A70F3BE
:1015C000959FC1F3950F50E0551F629FF001729FE8
:1015D000BB27F00DB11D639FAA27F00DB11DAA1FF7
:1015E000649F6627B00DA11D661F829F2227B00D44
:1015F000A11D621F739FB00DA11D621F839FA00DCF
:10160000611D221F749F3327A00D611D231F849F1E
:10161000600D211D822F762F6A2F11249F57504075
:101620009AF0F1F088234AF0EE0FFF1FBB1F661FF0
:10163000771F881F91505040A9F79E3F510580F0B9
:101640000C94740A0C94BF0A5F3FE4F3983ED4F301
:10165000869577956795B795F795E7959F5FC1F75D
:10166000FE2B880F911D9695879597F908950E94F6
:10167000500A880B990B0895A1E21A2EAA1BBB1BD6
:10168000FD010DC0AA1FBB1FEE1FFF1FA217B3074E
:10169000E407F50720F0A21BB30BE40BF50B661F64
:1016A000771F881F991F1A9469F760957095809528
:1016B00090959B01AC01BD01CF010895052E97FBCC
:1016C0001EF400940E94750B57FD07D00E943C0B3E
:1016D00007FC03D04EF40C94750B50954095309553
:1016E00021953F4F4F4F5F4F08959095809570958E
:1016F00061957F4F8F4F9F4F0895EE0FFF1F05900D
:10170000F491E02D099481E090E0F8940C94880B1A
:04171000F894FFCF7B
:10171400000000006C03D9020303B903340312036D
:101724002603000000003905D90240053F05507228
:1017340075656261204448543131000D0A004573D7
:10174400706572652E2E2E2E0054656D7065726163
:10175400747572613A2000696E66006F76660043A4
:10176400004D494E3A20004D41583A2000457370CF
:101774006572616E646F2044485431312E2E2E0000
:107E0000112484B714BE81FFF0D085E080938100F7
:107E100082E08093C00088E18093C10086E0809377
:107E2000C20080E18093C4008EE0C9D0259A86E02C
:107E300020E33CEF91E0309385002093840096BBD3
:107E4000B09BFECF1D9AA8958150A9F7CC24DD24C4
:107E500088248394B5E0AB2EA1E19A2EF3E0BF2EE7
:107E6000A2D0813461F49FD0082FAFD0023811F036
:107E7000013811F484E001C083E08DD089C08234E0
:107E800011F484E103C0853419F485E0A6D080C0E4
:107E9000853579F488D0E82EFF2485D0082F10E0AE
:107EA000102F00270E291F29000F111F8ED06801E7
:107EB0006FC0863521F484E090D080E0DECF843638
:107EC00009F040C070D06FD0082F6DD080E0C81688
:107ED00080E7D80618F4F601B7BEE895C0E0D1E017
:107EE00062D089930C17E1F7F0E0CF16F0E7DF06D8
:107EF00018F0F601B7BEE89568D007B600FCFDCFD4
:107F0000A601A0E0B1E02C9130E011968C91119780
:107F100090E0982F8827822B932B1296FA010C0160
:107F200087BEE89511244E5F5F4FF1E0A038BF0790
:107F300051F7F601A7BEE89507B600FCFDCF97BE46
:107F4000E89526C08437B1F42ED02DD0F82E2BD052
:107F50003CD0F601EF2C8F010F5F1F4F84911BD097
:107F6000EA94F801C1F70894C11CD11CFA94CF0C13
:107F7000D11C0EC0853739F428D08EE10CD085E9AC
:107F80000AD08FE07ACF813511F488E018D01DD067
:107F900080E101D065CF982F8091C00085FFFCCF94
:107FA0009093C60008958091C00087FFFCCF809118
:107FB000C00084FD01C0A8958091C6000895E0E648
:107FC000F0E098E1908380830895EDDF803219F02E
:107FD00088E0F5DFFFCF84E1DECF1F93182FE3DFCA
:107FE0001150E9F7F2DF1F91089580E0E8DFEE27F6
:047FF000FF270994CA
:027FFE00040479
:0400000300007E007B
:00000001FF
